:100000006AEF04F00000000000EF00F000000000C4
:0A0010000000000000000000F3D71C
:06001C00000000001200CC
:100022000F0E0C6E470E0D6E0D2EFED70C2EFCD74A
:06003200000000001200B6
:0A003800210E0D6E0D2EFED71200F2
:10004200030169BF02D0839601D0838669BD02D0C5
:10005200839401D0838469BB02D0839201D08382CE
:1000620069B902D0839001D0838048B102D08388DD
:1000720001D08398838AD1DF839A69B702D08396AD
:1000820001D0838669B502D0839401D0838469B399
:1000920002D0839201D0838269B102D0839001D0D1
:1000A200838048B102D0838801D08398838AB5DFE8
:0E00B200839A48A102D0B4DF01D0BDDF120056
:0200C00012002C
:0E00C2000301489165C369F3BBDF488112005A
:1000D000050E03015B6F000E5C6F5D6B5E6B0A0EBD
:1000E0005F6F000E606F010E616F000E626F800E19
:1000F0005819006E800E005C02E1000E575D04E2AC
:10010000010E5D6F000E5E6F800E5819006E800E3E
:100110006019005C02E15F51575D01E3F5D7010E04
:10012000636F000E646F800E6219006E800E64199A
:10013000005C02E16351615D30E35D515E110DE0F1
:10014000000E641902E1010E631907E1000E5C194B
:1001500002E1000E5B1901E000D00A0E656F000E8F
:10016000666F6351615D676F64516259686FA8DFA4
:10017000000E5C1902E1000E5B1901E000D00A0ECE
:10018000656F000E666F6351615D676F6451625900
:0C019000686F96DF634B642BC6D712002B
:10019C0010D0800E0301576F1AD0C00E576F17D0B6
:1001AC00940E576F14D0D40E576F11D0800E576F1A
:1001BC000ED003015751010AECE05751020AEDE051
:1001CC005751030AEDE05751040AEDE0EFD75805FB
:1001DC00006E5751002600C057F300C069F32BDFA7
:1001EC0048915B6B5B515925E96E000E5A21EA6E02
:1001FC00EE520BE05B515925E96E000E5A21EA6E66
:0E020C00EECF65F358DF5B2BEDD74881120073
:10021A000900F5CFE6FF0007FBE10107F9E112004B
:10022A00010E0301696F08DF010E576F010E586F47
:10023A00570E596F020E5A6FACDF020E576F040E3B
:10024A00586FB40E596F000E5A6FA3DF030E576F23
:10025A00030E586FC60E596F000E5A6F9ADF040EBE
:10026A00576F020E586FA00E596F000E5A6F91DF2A
:0C027A004F6B160E4E6F4D6B4B6B12005D
:10028600010E0301696FDADE010E576F010E586F1A
:10029600570E596F020E5A6F7EDF020E576F010E10
:1002A600586F4E0E596F000E5A6F75DF030E576F5B
:1002B600130E586F630E596F000E5A6F6CDF040EE3
:1002C600576F010E586F570E596F020E5A6F63DF44
:1002D6004F6B0D0E4E6F4D6B4B6B4D50010A0AE185
:1002E600020E576F0E0E586F430E596F000E5A6F5F
:1002F60052DF0CD04D50020A09E1020E576F0E0E66
:0E030600586F480E596F000E5A6F45DF1200F7
:10031400010E0301696F93DE010E576F010E586FD2
:10032400D60E596F020E5A6F37DF020E576F010E49
:10033400586F840E596F020E5A6F2EDF030E576FDB
:10034400010E586F6F0E596F020E5A6F25DF040E9F
:10035400576F010E586F990E596F020E5A6F1CDFBA
:10036400020E4F6F0A0E4E6F020E4D6F040E4B6F4E
:02037400120075
:10037600010E0301696F62DE010E576F010E586FA1
:10038600570E596F020E5A6F06DF020E576F130E85
:10039600586F9A0E596F000E5A6FFDDE030E576F97
:1003A600130E586F9D0E596F000E5A6FF4DE040E31
:1003B600576F010E586F570E596F020E5A6FEBDECC
:1003C6004F6B0C0E4E6F4D6B4B6B4151010A1CE18E
:1003D600020E576F040E586F2B0E596F000E5A6F90
:1003E600DADE030E576F060E586F530E596F030E63
:1003F6005A6FD1DE030E576F080E586F270E596FCE
:10040600000E5A6FC8DE2BD04151020A13E1020ECC
:10041600576F040E586F150E596F000E5A6FBBDEDC
:10042600030E576F060E586F210E596F000E5A6F46
:10043600B2DE15D04151030A12E1020E576F040EC7
:10044600586F370E596F000E5A6FA5DE030E576FA1
:10045600060E586F210E596F000E5A6F9CDE120061
:10046600010E0301696FEADD010E576F010E586F29
:10047600570E596F020E5A6F8EDE020E576F0B0E15
:10048600586FD90E596F000E5A6F85DE030E576FDF
:10049600130E586FCE0E596F010E5A6F7CDE040E86
:1004A600576F010E586F570E596F020E5A6F73DE53
:1004B6004F6B100E4E6F4D6B4B6B0C0E496F000E53
:1004C6004A6F020E576F080E586FCB0E596F010E0A
:0604D6005A6F61DE120006
:1004DC008280B60E0C6ED00E0D6E0D2EFED70C2E2D
:0804EC00FCD700008290120011
:1004F400010E0301696FA3DD010E576F010E586FE2
:10050400570E596F020E5A6F47DE020E576F070ED1
:10051400586F680E596F000E5A6F3EDE030E576F08
:10052400030E586F870E596F000E5A6F35DE040E96
:10053400576F010E586F570E596F020E5A6F2CDE0B
:0C0544004F6B150E4E6F4D6B4B6B120091
:10055000010E0301696F75DD010E576F010E586FB3
:10056000570E596F020E5A6F19DE020E576F090EA1
:10057000586F770E596F000E5A6F10DE030E576FCB
:10058000130E586F840E596F000E5A6F07DE040E5B
:10059000576F010E586F570E596F020E5A6FFEDDDE
:1005A0004F6B110E4E6F4D6B4B6B0C0E426F000E6E
:1005B000436F020E576F060E586F660E596F000E8E
:0605C0005A6FECDD120091
:1005C600FF0E0301446FFF0E456FFF0E466FFF0ED1
:1005D600476FC26AC00EC212C18CC18EC2801200A1
:1005E6008280680E0C6EE40E0D6E0D2EFED70C2E5C
:1005F600FCD700008290340E0C6EF10E0D6E0D2E9F
:10060600FED70C2EFCD7000000008280680E0C6E10
:10061600E40E0D6E0D2EFED70C2EFCD70000829038
:020626001200C0
:10062800010E0301696F09DD010E576F010E586F46
:10063800EB0E596F020E5A6FADDD020E576F010EA9
:10064800586F020E596F030E5A6FA4DD030E576FD1
:10065800010E586F2C0E596F030E5A6F9BDD040E56
:10066800576F010E586F170E596F030E5A6F92DDB0
:10067800010E4F6F0F0E4E6F010E4D6F020E4B6F36
:0206880012005E
:10068A00010E0301696FD8DC010E576F010E586F16
:10069A00570E596F020E5A6F7CDD020E576F010E0C
:1006AA00586F420E596F020E5A6F73DD030E576F61
:1006BA00130E586F6C0E596F020E5A6F6ADD040ED4
:1006CA00576F010E586F570E596F020E5A6F61DD40
:1006DA004F6B0B0E4E6F4D6B4B6B3BC257F3000EBD
:1006EA0002013BBFFF0E0301586F3C0E596F020E09
:1006FA005A6FE9DC4CC357F3000E4CBFFF0E586F1C
:10070A003F0E596F020E5A6FDEDC020E576F030E50
:10071A00586F3C0E596F020E5A6F3BDD020E576F2F
:10072A00050E586F000E596F030E5A6F32DD020E16
:10073A00576F060E586F3F0E596F020E5A6F29DD1A
:02074A0012009B
:10074C00010E0301696F77DC010E576F010E586FB4
:10075C00C10E596F020E5A6F1BDD020E576F030E3E
:10076C00586FAE0E596F020E5A6F12DD030E576F93
:10077C00040E586F290E596F020E5A6F09DD040EC4
:10078C00576F010E586F570E596F020E5A6F00DDDE
:10079C00020E4F6F140E4E6F020E4D6F030E4B6F09
:0207AC00120039
:1007AE00010E0301696F46DC010E576F010E586F83
:1007BE00A10E596F010E5A6FEADC020E576F010E31
:1007CE00586FB60E596F010E5A6FE1DC030E576F5C
:1007DE00010E586FD10E596F010E5A6FD8DC040EF0
:1007EE00576F010E586F120E596F020E5A6FCFDCF3
:1007FE00020E4F6F4E6B020E4D6F040E4B6F1200BA
:10080E00959A95989590959295949596839A8398A6
:10081E00839683948392839011EC00F011EC00F098
:10082E0011EC00F083828380838A0EEC00F0839AB1
:10083E0011EC00F0838A0EEC00F0839A11EC00F0BC
:10084E00838A0EEC00F0839A11EC00F08390838A79
:10085E000EEC00F0839A11EC00F0838A0EEC00F09F
:10086E00839A83928386838A0EEC00F0839A11EC2E
:10087E0000F083968380838A0EEC00F0839A839037
:10088E00838A0EEC00F0839A11EC00F0838A0EEC52
:10089E0000F0839A8380838A0EEC00F0839A11EC29
:1008AE0000F08390838A0EEC00F0839A8386838413
:1008BE0083828380838A0EEC00F0839A11EC00F021
:0608CE0003014881120045
:1008D400DFEC09F0300E0301506F300E516F526B94
:1008E400CE0EC16E936A816AFF0E936E946A826A19
:1008F4008CDF010E696F21EC00F00C0E696F21ECA6
:1009040000F05FDE8280020E0B6E860E0C6E990E76
:100914000D6E0D2EFED70C2EFCD70B2EFAD782901F
:1009240044DF81A001D0B1D381A403D103014E518E
:100934000B0A15E1800E010A006E800E02013B19BC
:10094400005C02E34EDE0AD0C7DD03014C074C51C4
:10095400FF0A04E1630E4C6F02013B07E6D003017A
:100964004E510C0A4EE1B8DD4151010A0CE1020E70
:10097400416F020E576F040E586F150E596F000E1B
:100984005A6F0ADC3DD04151020A17E1030E416F50
:10099400020E576F040E586F370E596F000E5A6FC0
:1009A400CEEC00F0030E576F060E586F210E596FF0
:1009B400000E5A6FCEEC00F023D04151030A20E11F
:1009C400010E416F020E576F040E586F2B0E596FB4
:1009D400000E5A6FCEEC00F0030E576F060E586FE0
:1009E400500E596F030E5A6FCEEC00F0030E576F82
:1009F400080E586F270E596F000E5A6FCEEC00F098
:100A040094D04E510D0A22E14D50020A0EE164DDEC
:100A1400010E4D6E020E576F0E0E586F430E596F36
:100A2400000E5A6FCEEC00F010D04D50010A0DE1CB
:100A340053DD020E4D6E020E576F0E0E586F480EA8
:100A4400596F000E5A6FCEEC00F06FD04E51100A61
:100A540018E1000E4A1902E1010E491910E03CDDCB
:100A6400010E495F000E4A5B020E576F080E586F65
:100A7400CB0E596F010E5A6FCEEC00F001D0B1DDF0
:100A840054D04E51110A22E1000E431902E1010E25
:100A940042191AE0800E4A19006E800E4319005C58
:100AA40002E14251495D10E317DD010E425F000E81
:100AB400435B020E576F080E586F660E596F000E97
:100AC4005A6FCEEC00F001D08CDD2FD04F51010FC6
:100AD400016E026A000E4FBFFF0E0222800E006EEE
:100AE400800E0218005C02E101504B5D08E24E5199
:100AF4000A0A03E1F1DC96DD01D073DD16D0ECDCEB
:100B04004FC357F3030E586F270E596F020E5A6FD7
:100B1400CEEC00F04F2B4FC357F3030E586F100E5B
:100B2400596F020E5A6FCEEC00F081A401D0FDD7AC
:100B3400ACD281A230D003014E51000A04E1CCDCD6
:100B44008AEC01F024D04E510A0A04E04E510F0AF7
:100B540001E003D0C1DCF8DD1AD04E510B0A16E0D7
:100B64004E510D0A13E04E51140A10E04E51150A6D
:100B74000DE04E51160A0AE04E510C0A07E04E51A0
:100B8400100A04E04E51110A01E001D02ADD81A2CD
:100B940001D0FDD77AD281A63ED003014E510A0A74
:100BA40004E04E510F0A01E003D096DCFEDD2FD0A5
:100BB4004E51140A04E190DC8AEC01F028D04E5125
:100BC400150A04E04E51160A01E003D085DCBCDDB1
:100BD4001ED04E510B0A04E17FDC8AEC01F017D0E1
:100BE4004E510D0A04E178DC8AEC01F010D04E512C
:100BF400100A03E171DC16DD0AD04E51110A03E13B
:100C04006BDC10DD04D04E51000A01E1EADC81A660
:100C140001D0FDD73AD281AA11D0000E006EFF0E8A
:100C2400001803E10301FF0E4E1902E1DADC02D0E1
:100C340053DCBBDD81AA01D0FDD727D281A825D200
:100C4400FED103014F51020A2DE1010E696F21EC1F
:100C540000F0010E576F010E586FE60E596F010E2A
:100C64005A6FCEEC00F0020E576F010E586FFB0E58
:100C7400596F010E5A6FCEEC00F0030E576F010E40
:100C8400586F230E596F010E5A6FCEEC00F0040E0C
:100C9400576F010E586FE60E596F010E5A6FCEEC66
:100CA40000F05BD04F51030A2DE1010E696F21EC76
:100CB40000F0010E576F010E586FE60E596F010ECA
:100CC4005A6FCEEC00F0020E576F010E586FFB0EF8
:100CD400596F010E5A6FCEEC00F0030E576F010EE0
:100CE400586F380E596F010E5A6FCEEC00F0040E97
:100CF400576F010E586FE60E596F010E5A6FCEEC06
:100D040000F02BD04F51040A28E1010E576F010E59
:100D1400586FE60E596F010E5A6FCEEC00F0020EBA
:100D2400576F010E586FFB0E596F010E5A6FCEECC0
:100D340000F0030E576F010E586F0E0E596F010E1F
:100D44005A6FCEEC00F0040E576F010E586FE60E8A
:100D5400596F010E5A6FCEEC00F094D14F51020A34
:100D640004E16EEC02F08FDC0FD04F51030A05E171
:100D74006EEC02F0BBEC01F007D04F51040A04E121
:100D84006EEC02F043EC01F07DD14F51010A05E114
:100D94006EEC02F033EC02F00BD04F51020A05E185
:100DA4006EEC02F0A8EC02F003D04F51030A00E10C
:100DB40069D16EEC02F0010E696F21EC00F0010EB6
:100DC400576F010E586FE60E596F010E5A6FCEEC35
:100DD40000F0020E576F010E586FE40E596F000EAB
:100DE4005A6FCEEC00F0030E576F010E586FF90ED8
:100DF400596F000E5A6FCEEC00F0040E576F010EBF
:100E0400586FE60E596F010E5A6FCEEC00F0090EC2
:100E14000B6E1E0E0C6EE40E0D6E0D2EFED70C2EF8
:100E2400FCD70B2EFAD700008AEC01F02BD16EEC24
:100E340002F0010E696F21EC00F0010E576F010EF4
:100E4400586FE60E596F010E5A6FCEEC00F0020E89
:100E5400576F010E586F4D0E596F010E5A6FCEEC3D
:100E640000F0030E576F010E586FF90E596F000E04
:100E74005A6FCEEC00F0040E576F010E586FE60E59
:100E8400596F010E5A6FCEEC00F0090E0B6E1E0E58
:100E94000C6EE40E0D6E0D2EFED70C2EFCD70B2E11
:100EA400FAD700008AEC01F0EDD06EEC02F0010EEE
:100EB400696F21EC00F0010E576F010E586FE60EBA
:100EC400596F010E5A6FCEEC00F0020E576F010EEF
:100ED400586F770E596F010E5A6FCEEC00F0030E67
:100EE400576F010E586FF90E596F000E5A6FCEEC02
:100EF40000F0040E576F010E586FE60E596F010E85
:100F04005A6FCEEC00F0090E0B6E1E0E0C6EE40E42
:100F14000D6E0D2EFED70C2EFCD70B2EFAD700002B
:100F24008AEC01F0AFD06EEC02F0010E696F21EC97
:100F340000F0010E576F010E586FE60E596F010E47
:100F44005A6FCEEC00F0020E576F010E586F8C0EE4
:100F5400596F010E5A6FCEEC00F0030E576F010E5D
:100F6400586FF90E596F000E5A6FCEEC00F0040E54
:100F7400576F010E586FE60E596F010E5A6FCEEC83
:100F840000F0090E0B6E1E0E0C6EE40E0D6E0D2E8F
:100F9400FED70C2EFCD70B2EFAD7000014EC03F06E
:100FA40071D06EEC02F0010E696F21EC00F0010EBD
:100FB400576F010E586FE60E596F010E5A6FCEEC43
:100FC40000F0020E576F010E586F620E596F010E3A
:100FD4005A6FCEEC00F0030E576F010E586FF90EE6
:100FE400596F000E5A6FCEEC00F0040E576F010ECD
:100FF400586FE60E596F010E5A6FCEEC00F0090ED1
:041004000B6E1E0E43
:0C1092004D414E55454C4C45202020009F
:06109E00202020202000AC
:0410A400736563000D
:0C10A8004155544F4D41544951554500ED
:0C10B40050415320444520535441420059
:0510C0004B6D2F6800DC
:0510C5006D2F732000F7
:0110CA000124
:1010CB00202020554E495445203A20202020202016
:0510DB0020205E7C00F6
:0310E000767C001B
:0210E3003000DB
:0F10E5005620322E322E312020202020207C0059
:0D10F400426970287329202020205E7C00B6
:03110100767C00F9
:10110400446174653A2032372F30312F3230313117
:03111400207C003C
:031117005E7C00FB
:03111A00767C00E0
:10111D0063726F6D323940686F746D61696C2E66E4
:04112D0072207C00B0
:10113100506F7572206C65732047444F2120202029
:021141007C0030
:101143005468696261757420434841524C45532089
:03115300207C00FD
:0B11560073656320202020205E7C00D9
:101161007C2048415554455552204455204D5552F7
:051171002020207C009D
:101176007C20202020202020454E524547495354AC
:051186005245207C0031
:10118B007C202020202020202041737365727669FB
:05119B007420207C001F
:1011A0007C2020202020204175746F6D617469714E
:0511B0007565207C00C4
:1011B5007C2020202020202020204D616E75656C2C
:0511C5002020207C0049
:1011CA007C205459504520444520535441422E20F6
:0511DA002020207C0034
:1011DF007C2042495053204156414E5420444543B0
:0511EF002020207C001F
:1011F4007C20554E49544520444520564954455376
:051204005345207C00B1
:101209007C4455524545204455204445434F4D5053
:051219005445207C009B
:10121E004F2D2D53454C454354494F4E204D4F4471
:05122E00452D2D3E00DE
:101233007C207E4155544F4D415449515545202002
:05124300202020200026
:0312480030300043
:03124B00767C00AE
:10124E007C20204D414E55454C2020202020202032
:05125E0020202020000B
:101263004F2D2D2D2D2D2D2D2D2D2D2D2D2D2D2D89
:051273002D2D2D4F00A0
:101278007C20204D6F646520202020202020202005
:051288002020207C0085
:02128D007E00E1
:10128F004F202041535345525649542020202020AF
:05129F002020203E00AC
:0212A400200028
:1012A600494E464F524D4154494F4E53202020201F
:0212B6007C00BA
:0112B8000A2B
:0312B900303000D2
:0312BC00303000CF
:1012BF0020202020202020202020204D4554524542
:0512CF0053205E7C00CD
:1012D4003C2D2D2D2D2D2D2D2D2D2D2D2D2D2D2D2B
:0512E4002D2D2D4F002F
:0312E900767C0010
:1012EC0020202053544142494C49534154494F4EBC
:0512FC0020202020006D
:1013010020207E48415554455552204D55522020AC
:05131100202020200057
:101316007620204146462E56495445535345204D86
:051326004F5920760084
:10132B007E56455253494F4E20202020202020200E
:03133B00207C0013
:10133E003C2D2D2D2D50524F4752414D4D452D2DAB
:05134E002D2D2D4F00C4
:101353003C2D2D2D2D504152414D45545245532D79
:051363002D2D2D3E00C0
:101368005E207E4455524545204445434F4D5054D8
:051378004520205E008D
:02137D002E0040
:10137F0020202042495053204445434F4D5054455F
:05138F002020202000D9
:101394003C2D2D504152414D455452455320424914
:0513A400532D2D3E0059
:1013A9002020202020202020202020202020202034
:0513B9002020202000AF
:020000040030CA
:0D000100220F0EFF0181FF0FC00FE00F4026
:00000001FF
